{
  "contractName": "Ownable",
  "abi": [
    {
      "inputs": [],
      "stateMutability": "nonpayable",
      "type": "constructor"
    },
    {
      "inputs": [],
      "name": "isOwner",
      "outputs": [
        {
          "internalType": "bool",
          "name": "",
          "type": "bool"
        }
      ],
      "stateMutability": "view",
      "type": "function"
    }
  ],
  "bytecode": "0x6080604052348015600f57600080fd5b50336000806101000a81548173ffffffffffffffffffffffffffffffffffffffff021916908373ffffffffffffffffffffffffffffffffffffffff16021790555060da8061005e6000396000f3fe6080604052348015600f57600080fd5b506004361060285760003560e01c80638f32d59b14602d575b600080fd5b6033604d565b604051808215151515815260200191505060405180910390f35b60008060009054906101000a900473ffffffffffffffffffffffffffffffffffffffff1673ffffffffffffffffffffffffffffffffffffffff163373ffffffffffffffffffffffffffffffffffffffff161490509056fea2646970667358221220f5510249b359d57b36cc7c2532df82d667b96a4b65314c1a1c01bb071d70296a64736f6c63430006010033",
  "source": "pragma solidity 0.6.1;\r\n\r\ncontract Ownable {\r\n    address payable owner;\r\n    \r\n    constructor() public {\r\n        owner = msg.sender;\r\n    }\r\n    \r\n    modifier onlyOwner() {\r\n        require(isOwner(), \"You are not the owner.\");\r\n        _;\r\n    }\r\n    \r\n    function isOwner() public view returns(bool) {\r\n        return (msg.sender == owner);\r\n    }\r\n}",
  "sourcePath": "D:\\Projects for Resume\\test-trigger-event\\contracts\\Ownable.sol",
  "compiler": {
    "name": "solc",
    "version": "0.6.1+commit.e6f7d5a4.Emscripten.clang"
  },
  "schemaVersion": "3.2.3",
  "updatedAt": "2020-09-19T11:03:05.654Z",
  "devdoc": {
    "methods": {}
  },
  "userdoc": {
    "methods": {}
  }
}